:020000040800F2
:10000000680600206D0100087501000877010008EE
:10001000790100087B0100087D0100080000000054
:100020000000000000000000000000007F01000848
:10003000810100080000000083010008850100081C
:100040008701000887010008870100088701000870
:100050008701000887010008870100088701000860
:100060008701000887010008870100088701000850
:100070008701000887010008870100088701000840
:100080008701000887010008870100088701000830
:100090008701000887010008870100088701000820
:1000A0008701000887010008870100088701000810
:1000B000510B00088701000887010008870100082C
:1000C00087010008870100088701000887010008F0
:1000D00087010008870100088701000887010008E0
:1000E00087010008870100088701000800F002F876
:1000F00000F02CF80AA090E8000C82448344AAF196
:100100000107DA4501D100F021F8AFF2090EBAE893
:100110000F0013F0010F18BFFB1A43F0010318473B
:100120004C1100005C110000002300240025002673
:10013000103A28BF78C1FBD8520728BF30C148BF4A
:100140000B6070471FB51FBD10B510BD00F031F832
:100150001146FFF7F7FF01F067F800F04FF803B41E
:10016000FFF7F2FF03BC00F057F800000948804792
:1001700009480047FEE7FEE7FEE7FEE7FEE7FEE789
:10018000FEE7FEE7FEE7FEE704480549054A064BA1
:1001900070470000810A0008ED0000086800002098
:1001A000680600206802002068020020704770473F
:1001B0007047754600F02CF8AE4605006946534678
:1001C00020F00700854618B020B5FFF7DDFFBDE839
:1001D00020404FF000064FF000074FF000084FF0AE
:1001E000000BAC46ACE8C009ACE8C009ACE8C009FB
:1001F000ACE8C00921F007018D46704710B50446F0
:10020000AFF300802046BDE81040FFF7A8BF000014
:10021000004870470000002001491820ABBEFEE7EF
:10022000260002007047000080B582B0019000F007
:100230005BFC019840F26001C2F200010860FFE738
:1002400040F26000C2F20000006808B1FFE7F7E783
:1002500002B080BD80B584B08DF80F008DF80E100F
:100260009DF80F00014600912F2800F2FB810099B4
:10027000DFE811F03000390042004B0054005D000F
:1002800066006F00780082008C009600A000AA0033
:10029000B400BE00C800D100DA00E300EC00F500B5
:1002A000FE00070110011A0124012E01380142014C
:1002B0004C0156016001690172017B0184018D01CD
:1002C00096019F01A801B201BC01C601D001DA016B
:1002D000E401EE0140F60000C4F2010002900120AA
:1002E000ADF80600BEE140F60000C4F20100029045
:1002F0000220ADF80600B5E140F60000C4F20100AE
:1003000002900420ADF80600ACE140F60000C4F213
:10031000010002900820ADF80600A3E140F60000BD
:10032000C4F2010002901020ADF806009AE140F6F8
:100330000000C4F2010002902020ADF8060091E117
:1003400040F60000C4F2010002904020ADF8060023
:1003500088E140F60000C4F2010002908020ADF870
:1003600006007FE140F60000C4F2010002904FF465
:100370008070ADF8060075E140F60000C4F201009F
:1003800002904FF40070ADF806006BE140F60000FB
:10039000C4F2010002904FF48060ADF8060061E104
:1003A00040F60000C4F2010002904FF40060ADF886
:1003B000060057E140F60000C4F2010002904FF43D
:1003C0008050ADF806004DE140F60000C4F2010097
:1003D00002904FF40050ADF8060043E140F60000F3
:1003E000C4F2010002904FF48040ADF8060039E1FC
:1003F00040F60000C4F2010002904FF40040ADF856
:1004000006002FE140F60040C4F2010002900120F6
:10041000ADF8060026E140F60040C4F2010002906B
:100420000220ADF806001DE140F60040C4F20100D4
:1004300002900420ADF8060014E140F60040C4F23A
:10044000010002900820ADF806000BE140F60040E4
:10045000C4F2010002901020ADF8060002E140F65F
:100460000040C4F2010002902020ADF80600F9E03F
:1004700040F60040C4F2010002904020ADF80600B2
:10048000F0E040F60040C4F2010002908020ADF898
:100490000600E7E040F60040C4F2010002904FF48D
:1004A0008070ADF80600DDE040F60040C4F20100C7
:1004B00002904FF40070ADF80600D3E040F6004023
:1004C000C4F2010002904FF48060ADF80600C9E06C
:1004D00040F60040C4F2010002904FF40060ADF815
:1004E0000600BFE040F60040C4F2010002904FF465
:1004F0008050ADF80600B5E040F60040C4F20100BF
:1005000002904FF40050ADF80600ABE040F600401A
:10051000C4F2010002904FF48040ADF80600A1E063
:1005200040F60040C4F2010002904FF40040ADF8E4
:10053000060097E041F20000C4F2010002900120A1
:10054000ADF806008EE041F20000C4F20100029016
:100550000220ADF8060085E041F20000C4F201007F
:1005600002900420ADF806007CE041F20000C4F2E5
:10057000010002900820ADF8060073E041F200008F
:10058000C4F2010002901020ADF806006AE041F2CA
:100590000000C4F2010002902020ADF8060061E0E6
:1005A00041F20000C4F2010002904020ADF80600C4
:1005B00058E041F20000C4F2010002908020ADF842
:1005C00006004FE041F20000C4F2010002904FF437
:1005D0008070ADF8060045E041F20000C4F2010071
:1005E00002904FF40070ADF806003BE041F20000CD
:1005F000C4F2010002904FF48060ADF8060031E0D3
:1006000041F20000C4F2010002904FF40060ADF826
:10061000060027E041F20000C4F2010002904FF40E
:100620008050ADF806001DE041F20000C4F2010068
:1006300002904FF40050ADF8060013E041F20000C4
:10064000C4F2010002904FF48040ADF8060009E0CA
:1006500041F20000C4F2010002904FF40040ADF8F6
:100660000600FFE79DF80E0030B9FFE70298BDF8DD
:10067000061000F0CDF805E00298BDF8061000F075
:10068000D1F8FFE704B080BD88B007900691002044
:100690000590049003900290019000900698C07815
:1006A00000F00F0005900698C078C006002806D517
:1006B000FFE706988178059808430590FFE70698BC
:1006C000007800284BD0FFE70798006801900020D1
:1006D0000390FFE7039807283DD8FFE7039901201F
:1006E0008840029006980088029908400490049877
:1006F000029988422AD1FFE703988000029002996C
:100700000F20884000900099019888430190059837
:10071000029900FA01F10198084301900698C07807
:10072000282806D1FFE703990120884007994861EE
:100730000BE00698C078482806D1FFE7039901200E
:10074000884007990861FFE7FFE7FFE7FFE70398A5
:1007500001300390BEE7019807990860FFE706980B
:100760000088B0F5807F50DBFFE707984068019074
:1007700000200390FFE70398072842D8FFE703987B
:1007800000F1080101208840029006980088029933
:10079000084004900498029988422DD1FFE70398FD
:1007A0008000029002990F208840009000990198E3
:1007B000884301900598029900FA01F101980843D5
:1007C00001900698C078282808D1FFE7039800F127
:1007D00008010120884007994861FFE70698C07822
:1007E000482808D1FFE7039800F10801012088405C
:1007F00007990861FFE7FFE7FFE7039801300390DF
:10080000B9E7019807994860FFE708B07047000012
:1008100082B00190ADF80210BDF802000199486164
:1008200002B0704782B00190ADF80210BDF802002E
:100830000199086102B0704784B0039000200290D3
:1008400001900F2000900398C078C0B3FFE74EF6E8
:100850000C50CEF200000068C043C0F302200290AA
:100860000298C0F10400019000980299C8400090DD
:100870000398407801998840029003988078009905
:1008800001400298084302900298000102900298E9
:10089000039909784EF20042CEF200028854039880
:1008A000027802F01F01012088404EF20011CEF2C2
:1008B000000141EAD20121F0030108600FE0039832
:1008C000027802F01F01012088404EF28011CEF222
:1008D000000141EAD20121F003010860FFE704B002
:1008E0007047000082B001908DF803109DF803005E
:1008F00048B1FFE7019A41F21C01C4F20201086805
:100900001043086008E0019A41F21C01C4F20201A0
:10091000086890430860FFE702B0704782B001901A
:100920008DF803109DF8030048B1FFE7019A41F2EA
:100930001801C4F2020108681043086008E0019A37
:1009400041F21801C4F20201086890430860FFE711
:1009500002B0704780B500F001F880BD84B000207F
:100960000390029041F20001C4F20201086840F4D1
:1009700080300860FFE741F20000C4F20200006826
:1009800000F400300290039801300390FFE70299D1
:100990000020019039B9FFE70398B0F5A06018BFB7
:1009A00001200190FFE70198C0070028E3D1FFE78D
:1009B00041F20000C4F2020000688003002803D561
:1009C000FFE70120029002E000200290FFE702987A
:1009D000012851D1FFE742F20001C4F20201086888
:1009E00040F010000860086820F007000860086800
:1009F00040F00200086041F20401C4F202010091DB
:100A00000868086008680860086840F4806008604A
:100A1000086820F47C100860086840F4E81008605A
:100A200041F20001C4F20201086840F080700860E1
:100A3000FFE741F20000C4F20200006880010028D4
:100A400001D4FFE7F5E741F20401C4F202010868AE
:100A500020F003000860086840F002000860FFE72B
:100A600041F20400C4F20200006800F00C00082803
:100A700001D0FFE7F4E700E0FFE704B070470000B3
:100A800080B541F20002C4F20202106840F0010099
:100A9000106041F20401C4F2020108680023CFF69D
:100AA000FF031840086010684FF6FF73CFF6F66337
:100AB00018401060106820F480201060086820F44E
:100AC000FE00086041F20801C4F202014FF41F0069
:100AD0000860FFF73FFF4EF60851CEF200014FF0DD
:100AE0000060086080BD000080B588B001210391DE
:100AF0000846FFF7F7FE40F60F60ADF8140013202C
:100B0000ADF8180000200290ADF81A00ADF81600FC
:100B10004FF08040019005A900F09AF80198039ADF
:100B2000114600F07BF80198039900F033F8029920
:100B300003981C228DF810208DF811108DF81210DA
:100B40008DF8130004A8FFF777FE08B080BD000001
:100B500080B54FF08040012100F032F868B1FFE726
:100B600040F26001C2F200010868013808604FF0ED
:100B70008040012100F002F8FFE780BD82B00190C3
:100B8000ADF80210BDF80200C0430199088202B01E
:100B90007047000082B001908DF803109DF80300AB
:100BA00030B1FFE70199088840F00100088005E0B6
:100BB0000199088820F001000880FFE702B0704723
:100BC00083B00290ADF8061000208DF80500ADF856
:100BD0000200ADF800000298008ABDF80610084037
:100BE000ADF8020002988089BDF806100840ADF803
:100BF0000000BDF8020040B1FFE7BDF8000020B1E1
:100C0000FFE701208DF8050003E000208DF80500C6
:100C1000FFE79DF8050003B07047000082B0019027
:100C2000ADF802108DF801209DF8010038B1FFE702
:100C3000BDF80220019988891043888106E0BDF83B
:100C400002200199888990438881FFE702B07047AC
:100C500083B0029001910020ADF802000298008854
:100C6000ADF80200029842F60041C4F20101884248
:100C700025D0FFE7029843F20041C4F20101884207
:100C80001DD0FFE70298B0F1804F18D0FFE702981F
:100C900040F20041C4F20001884210D0FFE7029800
:100CA00040F60001C4F20001884208D0FFE7029834
:100CB00040F60041C4F2000188420ED1FFE7BDF8C2
:100CC000020020F07000ADF8020001984188BDF8E4
:100CD00002000843ADF80200FFE7029841F200016C
:100CE000C4F20001884216D0FFE7029841F20041A9
:100CF000C4F2000188420ED0FFE7BDF8020020F4E4
:100D00004070ADF802000198C188BDF802000843A8
:100D1000ADF80200FFE7BDF80200029908800198D3
:100D20008088029988850198008802990885029830
:100D300042F60041C4F20101884220D0FFE7029848
:100D400043F20041C4F20101884218D0FFE7029843
:100D500044F20001C4F20101884210D0FFE702987A
:100D600044F20041C4F20101884208D0FFE7029832
:100D700044F60001C4F20101884205D1FFE7019861
:100D8000007A02990886FFE702990120888203B061
:100D90007047000080B586B08DF817008DF81610EA
:100DA0009DF81700014600912F2800F2FB81009961
:100DB000DFE811F03000390042004B0054005D00C4
:100DC00066006F00780082008C009600A000AA00E8
:100DD000B400BE00C800D100DA00E300EC00F5006A
:100DE000FE00070110011A0124012E013801420101
:100DF0004C0156016001690172017B0184018D0182
:100E000096019F01A801B201BC01C601D001DA011F
:100E1000E401EE0140F60000C4F20100049001205C
:100E2000ADF80E00BEE140F60000C4F201000490EF
:100E30000220ADF80E00B5E140F60000C4F201005A
:100E400004900420ADF80E00ACE140F60000C4F2BE
:100E5000010004900820ADF80E00A3E140F6000068
:100E6000C4F2010004901020ADF80E009AE140F6A3
:100E70000000C4F2010004902020ADF80E0091E1C2
:100E800040F60000C4F2010004904020ADF80E00CE
:100E900088E140F60000C4F2010004908020ADF823
:100EA0000E007FE140F60000C4F2010004904FF410
:100EB0008070ADF80E0075E140F60000C4F201004C
:100EC00004904FF40070ADF80E006BE140F60000A6
:100ED000C4F2010004904FF48060ADF80E0061E1AF
:100EE00040F60000C4F2010004904FF40060ADF839
:100EF0000E0057E140F60000C4F2010004904FF4E8
:100F00008050ADF80E004DE140F60000C4F2010043
:100F100004904FF40050ADF80E0043E140F600009D
:100F2000C4F2010004904FF48040ADF80E0039E1A6
:100F300040F60000C4F2010004904FF40040ADF808
:100F40000E002FE140F60040C4F2010004900120A1
:100F5000ADF80E0026E140F60040C4F20100049016
:100F60000220ADF80E001DE140F60040C4F2010081
:100F700004900420ADF80E0014E140F60040C4F2E5
:100F8000010004900820ADF80E000BE140F600408F
:100F9000C4F2010004901020ADF80E0002E140F60A
:100FA0000040C4F2010004902020ADF80E00F9E0EA
:100FB00040F60040C4F2010004904020ADF80E005D
:100FC000F0E040F60040C4F2010004908020ADF84B
:100FD0000E00E7E040F60040C4F2010004904FF438
:100FE0008070ADF80E00DDE040F60040C4F2010074
:100FF00004904FF40070ADF80E00D3E040F60040CE
:10100000C4F2010004904FF48060ADF80E00C9E016
:1010100040F60040C4F2010004904FF40060ADF8C7
:101020000E00BFE040F60040C4F2010004904FF40F
:101030008050ADF80E00B5E040F60040C4F201006B
:1010400004904FF40050ADF80E00ABE040F60040C5
:10105000C4F2010004904FF48040ADF80E00A1E00E
:1010600040F60040C4F2010004904FF40040ADF897
:101070000E0097E041F20000C4F20100049001204C
:10108000ADF80E008EE041F20000C4F201000490C1
:101090000220ADF80E0085E041F20000C4F201002C
:1010A00004900420ADF80E007CE041F20000C4F290
:1010B000010004900820ADF80E0073E041F200003A
:1010C000C4F2010004901020ADF80E006AE041F275
:1010D0000000C4F2010004902020ADF80E0061E091
:1010E00041F20000C4F2010004904020ADF80E006F
:1010F00058E041F20000C4F2010004908020ADF8F5
:101100000E004FE041F20000C4F2010004904FF4E1
:101110008070ADF80E0045E041F20000C4F201001D
:1011200004904FF40070ADF80E003BE041F2000077
:10113000C4F2010004904FF48060ADF80E0031E07D
:1011400041F20000C4F2010004904FF40060ADF8D9
:101150000E0027E041F20000C4F2010004904FF4B9
:101160008050ADF80E001DE041F20000C4F2010015
:1011700004904FF40050ADF80E0013E041F200006F
:10118000C4F2010004904FF48040ADF80E0009E075
:1011900041F20000C4F2010004904FF40040ADF8A9
:1011A0000E00FFE7049840F60001C4F201018842F6
:1011B00003D1FFE7042002900EE0049840F60041BE
:1011C000C4F20101884203D1FFE70820029002E047
:1011D00010200290FFE7FFE79DF8160020B9FFE717
:1011E00048208DF80D0009E09DF81600012804D173
:1011F000FFE710208DF80D00FFE7FFE702980121BF
:10120000FFF78CFBBDF80E00ADF804009DF80D0053
:101210008DF8070002208DF80600049801A9FFF759
:1012200033FA06B080BD000080B586B0002005907E
:101230002D20039001210491FFF7ACFD0398049940
:10124000FFF708F8FFE72D2001900021FFF702F8D3
:101250004FF47A700290FEF7E7FF01980121FEF744
:10126000F9FF0298FEF7E0FFEDE700007C120008AE
:0C127000000000206806000028010008B3
:04000005080000ED02
:00000001FF
